:100000000C94CD000C94F5000C94F5000C94F500C4
:100010000C94F5000C94F5000C94F5000C94F5008C
:100020000C94F5000C94F5000C9411050C948005CB
:100030000C94F5000C94F5000C94F5000C94F5006C
:100040000C94F5000C94F5000C94F5000C94F5005C
:100050000C94F5000C94F5000C94F5000C94B20788
:100060000C94F5000C94F5000C94F5000C94F5003C
:100070000C94F5000C94F5000C94F5000C94F5002C
:100080000C94F5000C94F5000C94F5000C94F5001C
:100090000C94F5000C94F5000C94F5000C94F5000C
:1000A0000C94F5000C94F5000C94F5000000000091
:1000B000250028002B002E003100080B0002020250
:1000C00000000904000001020200000524001001E4
:1000D0000524010101042402060524060001070588
:1000E000810310004009040100020A000000070516
:1000F00002024000000705830240000004030904D7
:1001000012010002EF020140412337800001010289
:10011000030141726475696E6F204C4C430041725B
:100120006475696E6F204D6963726F000000000294
:1001300000090F0000030401000C00000000000093
:10014000000000000000000000000000000000248B
:100150000027002A002D0030000408020110408012
:10016000401020408040800802040180402010029E
:1001700001108010204040200404040404030405FE
:100180000202020204030202020206060606060634
:100190000404020202040400960C11241FBECFEFD7
:1001A000DAE0DEBFCDBF11E0A0E0B1E0E6E6F9E1C4
:1001B00002C005900D92A033B107D9F722E0A0E369
:1001C000B1E001C01D92AF3BB207E1F710E0CDEC0A
:1001D000D0E004C02197FE010E94AB0CCC3CD107BB
:1001E000C9F70E94FC070C94B10C0C940000FC01B0
:1001F00080916E02882311F13FB7F89482E08093DA
:10020000E9002091F200822F90E01816190614F4EC
:1002100081E090E0882339F0289A44E640936D020B
:100220004091F1004083222339F02091F200211106
:1002300003C02BE62093E8003FBF08958FEF9FEFA8
:1002400008952FB7F89483E08093E9009091E80037
:10025000892F807295FF04C09091F20080E4891B81
:100260002FBF08958091650281110DC082E08093B7
:10027000610284E080936202109264021092630231
:1002800081E08093650281E692E008954091370114
:1002900050913801209135013091360142175307B2
:1002A000B4F49091E8009570E1F39091E80092FD2C
:1002B00019C08093F1008091370190913801019627
:1002C0008F739927892B19F48EEF8093E800809122
:1002D000370190913801019690933801809337014E
:1002E00081E0089580E00895EF92FF920F931F93AD
:1002F000CF93DF93F82E192FE62E042F81E0860F7F
:10030000880F0E94460183E00E944601CF2DD12F25
:10031000EC0EFD2EF11CCE15DF05B9F007FF13C062
:10032000FE0184910E944601182F80E00E94460140
:10033000812321968111EFCFDF91CF911F910F91F2
:10034000FF90EF9008958881EDCF81E0F5CFDF92A7
:10035000EF92FF920F931F93CF93DF93D82E8A01D2
:10036000EB017B01E40EF51ECE15DF0559F0D7FE3B
:1003700012C0FE0184910E94460121968111F4CFA2
:100380000FEF1FEFC801DF91CF911F910F91FF90E9
:10039000EF90DF9008958881EECF0F931F93CF9356
:1003A000DF931F92CDB7DEB782E0898342E450E04D
:1003B0006AEB70E080E80E94A7010E943201DC0134
:1003C00012960D911C910115110589F0D801ED913E
:1003D000FC910280F381E02DBE016F5F7F4FC80169
:1003E000099597FD04C0F80100851185ECCF89813E
:1003F0000F90DF91CF911F910F910895615030F0D0
:100400002091F100FC0120830196F8CF289A84E620
:1004100080936D020895CF93DF931F92CDB7DEB71F
:100420006983DC01ED91FC910280F381E02D41E0D4
:1004300050E0BE016F5F7F4F09950F90DF91CF9124
:100440000895682F8FE692E00C940B0283E080936E
:10045000E9008091F200882319F08AE38093E80094
:1004600008950E94210190E00895CF93DF931F9299
:10047000CDB7DEB7FC018485958597FD08C02FEFC9
:100480003FEF358724870F90DF91CF910895CE01FC
:1004900001960E94F700019719F4898190E0F3CF4B
:1004A0008FEF9FEFF0CF0F931F93CF93DF931F92A8
:1004B000CDB7DEB78C01FC018485958597FF0BC015
:1004C000CE0101960E94F700019771F4898190E0B6
:1004D000F80195878487F801848595850F90DF91D1
:1004E000CF911F910F9108958FEF9FEFF1CFFC01F6
:1004F0008485958597FD0BC09FB7F89482E0809323
:10050000E9008091F2009FBF90E0019608959FB7A7
:10051000F89482E08093E9008091F2009FBF90E020
:100520000895282F30E0F901E45DFE4F9491F90120
:10053000E75AFE4F849128583E4FF9012491222317
:1005400009F430C09923E9F091509F30D0F4E92F9D
:10055000F0E0E355FD4F0C94AB0CDB02DF02BC0274
:10056000D302D702C102C102C102E202E802EC02D8
:10057000F002F602C102FA02909180009F779093F8
:100580008000E22FF0E0EE0FFF1FE455FF4FA59132
:10059000B4919FB7F894EC91611132C080958E238D
:1005A0008C939FBF0895909180009F7DE8CF90919C
:1005B0008000977FE4CF94B59F7794BDE2CF94B548
:1005C0009F7DFBCF909190009F7790939000D9CF23
:1005D000909190009F7DF9CF90919000977FF5CFFB
:1005E0009091C0009F779093C000CBCF9091C000B6
:1005F0009F7DF9CF9091C200977F9093C200C1CFA9
:100600008E2BCECFCF93DF9390E0FC01E75AFE4FC5
:10061000249188589E4FFC0184918823D1F090E06A
:10062000880F991FFC01E55BFE4FA591B491FC0179
:10063000E455FF4FC591D49161110EC09FB7F89456
:100640008C91E22FE0958E238C932881E223E8831E
:100650009FBFDF91CF9108958FB7F894EC91E22B73
:10066000EC938FBFF6CF3FB7F89480913101909112
:100670003201A0913301B091340126B5A89B05C089
:100680002F3F19F00196A11DB11D3FBFBA2FA92F11
:10069000982F8827BC01CD01620F711D811D911D0E
:1006A00042E0660F771F881F991F4A95D1F708957A
:1006B0008F929F92AF92BF92CF92DF92EF92FF9272
:1006C0004B015C010E9433036B017C010E943303E8
:1006D0006C197D098E099F09683E7340810591055B
:1006E000A8F321E0821A9108A108B10888EEC80E8B
:1006F00083E0D81EE11CF11C81149104A104B10413
:1007000029F7FF90EF90DF90CF90BF90AF909F9030
:100710008F9008951F93CF93DF93182FC3E0D0E0FD
:1007200061E0812F0E9491026EE170E080E090E034
:100730000E94580360E0812F0E9491026EE170E0F8
:1007400080E090E00E945803219751F7DF91CF910C
:100750001F9108958F929F92AF92BF92CF92DF9296
:10076000EF92FF920F931F93CF93DF936C017B0166
:100770008A0180910B01882309F45CC080916E028C
:10078000882309F457C080913B0180FF05C0809108
:10079000E00082608093E000E801B12C8AEFA82E8F
:1007A00093E0892E2AE3922E209711F4BB20D9F1F1
:1007B0000E94210181110AC0AA94AA20D9F161E006
:1007C00070E080E090E00E945803EECF8C171D0689
:1007D00011F00CF08C2F9FB7F8948092E9002091D3
:1007E000E80025FD02C09FBFDFCF282F30E0C21BED
:1007F000D30BF701815020F041914093F100FACFE3
:10080000E20EF31EBB2021F09092E800B12CEBCF5A
:100810008091E80085FDE7CF9092E800BB24B39477
:10082000209709F3F3CF5D9A84E680933A0110167E
:1008300011063CF081E090E0F6019383828310E0A2
:1008400000E0C801DF91CF911F910F91FF90EF90D1
:10085000DF90CF90BF90AF909F908F900895809140
:100860005D0290915E02019690935E0280935D021C
:1008700085E10C9421022091500130915101809129
:100880005B0290915C022032310511F4807F089563
:100890002034310511F4807E08952038310511F49B
:1008A000807C08952115314009F4807808958FE601
:1008B00092E00E947702892BD1F38FE692E00E94AA
:1008C00035020895CF93C82F0E945704803251F407
:1008D00084E10E9421028C2F0E94210280E1CF91AD
:1008E0000C94210280915D0290915E02019690939A
:1008F0005E0280935D0285E1F2CF0E945704803250
:1009000031F484E10E94210280E10C942102809163
:100910005D0290915E02019690935E0280935D026B
:1009200085E1F3CF0F931F93CF93DF938C01C8E53D
:10093000D1E0CE01885591408017910724F40E94A0
:1009400057048993F6CFDF91CF911F910F910895AE
:100950008EBD00000DB407FEFDCF8EB508951F9328
:10096000CF93DF93162FD42FC22F0E94A804812F7C
:100970000E94A8048D2F0E94A8048C2FDF91CF9194
:100980001F910C94A804EF92FF920F931F93CF93A3
:10099000DF93EC018B01CB010E94920460E087E0C1
:1009A0000E94910288E5E82E81E0F82E0C0F1D1FB1
:1009B000C017D10781F0F70121917F014C2F6D2FD6
:1009C00080EC0E94AF046DE270E080E090E00E9455
:1009D00058032196EDCF61E087E00E94910280E10B
:1009E000DF91CF911F910F91FF90EF900895CF93DA
:1009F000DF93D82FC92F60E087E00E94910220E0AA
:100A00004D2F6C2F8CE40E94AF046EE170E080E00B
:100A100090E00E94580361E087E0DF91CF910C9451
:100A200091021F920F920FB60F9211248F939F93F2
:100A30008091E1009091E100937F9093E10083FF2A
:100A40000FC01092E90091E09093EB001092EC003F
:100A500092E39093ED0010926E0298E09093F00074
:100A600082FF22C093E09093E9009091F2009923D5
:100A700019F09AE39093E80090913A01992341F09C
:100A800090913A01915090933A01911101C05D9873
:100A900090916D02992341F090916D029150909345
:100AA0006D02911101C0289884FF18C08091E20066
:100AB0008E7E81608093E2008091E1008F7E809342
:100AC000E10080913B018E7E806180933B019F918C
:100AD0008F910F900FBE0F901F90189580FFF7CF4A
:100AE0008091E2008E7E80618093E2008091E1003F
:100AF0008E7E8093E10080913B018E7E8160E5CF08
:100B00001F920F920FB60F921124CF92DF92EF92A5
:100B1000FF920F931F932F933F934F935F936F9386
:100B20007F938F939F93AF93BF93EF93FF93CF9355
:100B3000DF93CDB7DEB76C97DEBFCDBF1092E90073
:100B40008091E80083FF25C068E0CE0145960E94B1
:100B5000FE0182EF8093E8008D8987FF39C0909174
:100B6000E80090FFFCCF982F907609F034C19E8961
:100B70004F89588D2F89F88C911131C0803861F5DB
:100B800080913C018093F1001092F1008EEF8093F0
:100B9000E8006C960FB6F894DEBF0FBECDBFDF91B4
:100BA000CF91FF91EF91BF91AF919F918F917F91E5
:100BB0006F915F914F913F912F911F910F91FF90F6
:100BC000EF90DF90CF900F900FBE0F901F90189571
:100BD0009EEF9093E800C7CF1092F100D5CF9130EF
:100BE00059F48111D3CF4130510581F680913C01F8
:100BF0008D7F80933C01CACF933049F48111C6CFD9
:100C00004130510519F680913C018260F2CF953058
:100C100041F48091E80080FFFCCF20682093E3003E
:100C2000B5CF963009F0A9C00B8D1C8D22E0109233
:100C3000E9001092380110923701F2122EC0109282
:100C40003601109235010E94CD011F8299E09983EF
:100C5000FA8291E09E8390EA98879AEF9987209193
:100C6000370130913801275F3F4F3C832B838D83C1
:100C70001092E9001092380110923701109336015A
:100C80000093350149E050E0BE016F5F7F4F80E087
:100C90000E94A7010E94CD0179CF109336010093E5
:100CA00035010E943201DC0112960D911C91011553
:100CB000110509F451C1D801ED91FC910480F58131
:100CC000E02DBE016B5E7F4FC8010995009709F0CA
:100CD0003EC1F80100851185EACFF3E0FF120EC096
:100CE0008F89882309F440C0823061F440E86DE0C8
:100CF0008EE191E00E947401811148CF81E28093DE
:100D0000EB0047CF813029F440E86BE082E191E0CD
:100D1000F1CF833099F70E943201DC011296ED90F9
:100D2000FC908E010F5F1F4F6801E114F10479F010
:100D3000D701ED91FC910680F781E02DB801C70144
:100D40000995080F111DF701E084F184EECFD80159
:100D50001C92F60101900020E9F73197BF016C1950
:100D60007D0940E0C601C6CF6CEF70E0FB01449105
:100D700050E080E80E94A70109CF973009F4BECF68
:100D8000983021F481E08093F10000CF993009F090
:100D9000FDCE837009F0B2CFE1E2F1E081E031E015
:100DA00096E32191222371F08093E9003093EB00C8
:100DB000DF0111972C912093EC009093ED008F5F51
:100DC000873079F78EE78093EA001092EA008F89E6
:100DD00080936E02DBCE8B8D9C8D1092E900109279
:100DE0003801109237019093360180933501898D37
:100DF000811192C08E899D89913A49F4813209F01E
:100E00007DCF47E050E064E071E080E0B3CF913205
:100E100009F074CF833269F48F89988DB0E0A0E037
:100E20008093000190930101A0930201B09303010C
:100E3000ADCE803269F48091E80082FFFCCF67E09C
:100E400084E091E00E94FE018BEF8093E8009ECE4B
:100E5000823209F09BCE8F8980930B01EEEFFFE782
:100E6000859194918B3F9C4D51F1E0E0F8E08091A9
:100E7000040190910501A0910601B0910701803B0A
:100E80009440A105B105F1F480910B0180FD1AC0D9
:100E9000EE3F8AE0F80789F587E797E7918380833B
:100EA000809160008093390188E19BE00FB6F8944F
:100EB000A895809360000FBE9093600067CEEEEF20
:100EC000FAE0D5CF808191818737974709F05ECED0
:100ED000A8958091600088618093600080913901BD
:100EE00080936000EE3F2AE0F20789F08091FE0ACD
:100EF0009091FF0A9183808349CE808191818737C9
:100F0000980751F29093FF0A8093FE0AC5CF109282
:100F1000FF0A1092FE0A3ACE0E943201DC011296BC
:100F20000D911C910115110509F4E8CED801ED9140
:100F3000FC910190F081E02DBE016B5E7F4FC801F6
:100F40000995811123CEF80100851185EBCF181684
:100F500019060CF41BCED2CEF1E0FF12BECE60E03B
:100F600071E004CF1F920F920FB60F9211242F93AE
:100F70003F938F939F93AF93BF9380913D01909147
:100F80003E01A0913F01B09140013091300123E03A
:100F9000230F2D3758F50196A11DB11D2093300167
:100FA00080933D0190933E01A0933F01B093400197
:100FB0008091310190913201A0913301B0913401BF
:100FC0000196A11DB11D8093310190933201A09330
:100FD0003301B0933401BF91AF919F918F913F91B5
:100FE0002F910F900FBE0F901F90189526E8230F9A
:100FF0000296A11DB11DD2CF789484B5826084BDC4
:1010000084B5816084BD85B5826085BD85B581600C
:1010100085BD80916E00816080936E00109281008A
:101020008091810082608093810080918100816045
:101030008093810080918000816080938000809106
:1010400091008260809391008091910081608093F3
:101050009100809190008160809390008091C10008
:1010600084608093C1008091C10082608093C10040
:101070008091C10081608093C1008091C300816034
:101080008093C3008091C00082608093C0008091F3
:10109000C20081608093C20080917A008460809356
:1010A0007A0080917A00826080937A0080917A0041
:1010B000816080937A0080917A00806880937A00C2
:1010C00010926E0210923C0110923B018091D70069
:1010D00081608093D70080EA8093D80089B58061D1
:1010E00089BD89B5826089BD09B400FEFDCF61E08C
:1010F00070E080E090E00E9458038091D8008F7CDF
:1011000080618093D8008091E000807F8093E00030
:101110008091E1008E7E8093E1008DE08093E2007B
:10112000559A209A5D9828988FEF9FEF90937C02B4
:1011300080937B0261E087E00E94020387E090E0F9
:101140000E948A0361E088E00E94020388E090E048
:101150000E948A0361E089E00E94020389E090E036
:101160000E948A030BE8A02EBB24B39489E8282EA2
:1011700081E0382E9AE6492E91E0592E20E0622E29
:1011800020E0722E88248394912C80915F029091AC
:10119000600261E0892B09F460E087E00E9491021F
:1011A00080915D0290915E0261E0892B09F460E01C
:1011B00088E00E9491022FB7F89480913D019091B0
:1011C0003E01A0913F01B09140012FBF40914101EC
:1011D0005091420160914301709144018C019D0145
:1011E000041B150B260B370BB901A801483251051A
:1011F0006105710518F18093410190934201A0931C
:101200004301B0934401C0910D0180910C01C13C98
:1012100020F0819580930C0102C0C032D0F3809100
:101220000C01C80FC0930D0161E089E00E94020328
:10123000C1112BC060E089E00E9491028FE692E02C
:101240000E947702892B09F4A2C20E9457048135BB
:1012500009F40CC308F036C1813409F4C0C108F0A8
:10126000A5C0803309F4A2C1813309F4A6C180323C
:1012700009F04CC380915D0290915E0201969093BB
:101280005E0280935D0285E177C2CF3F11F461E099
:10129000D2CFE5E3F1E08491EFEFE80FEF3008F013
:1012A00082C0F0E0EA5AF64F0C94AB0C65096A096B
:1012B0006F097A098509D309D309D30990099B09D4
:1012C000A609B109BE09D309C60984B5806884BDE1
:1012D000C7BDB4CF84B5806284BDC8BDAFCF809197
:1012E0008000806880938000D0E0D0938900C09314
:1012F0008800A4CF80918000806280938000D0E03D
:10130000D0938B00C0938A0099CF80918000886031
:1013100080938000D0E0D0938D00C0938C008ECF5E
:1013200080919000806880939000D0E0D0939900E5
:10133000C093980083CF809190008062809390004A
:10134000D0E0D0939B00C0939A0078CF809190001A
:10135000886080939000D0E0D0939D00C0939C0063
:101360006DCF8091C00080688093C0008091C000E4
:101370008F7B8093C000C093CF0060CF8091C0006E
:1013800080628093C000C093D00058CF8091C2008B
:1013900088608093C2008091C2008B7F8093C200DE
:1013A000C093D2004BCFC7FD72CF44CF853409F430
:1013B0002DC1803509F42FC1823409F0A7C284E120
:1013C00090E00E9492042091580120934501809161
:1013D00059018093460180915A0180934701809181
:1013E0005B018093480180915C0180934901809169
:1013F0005D0180934A0180915E0180934B01809151
:101400005F0180934C018091600180934D01809138
:10141000620190E0982F882730916301830F911D1E
:1014200090934F0180934E018091640190E0982F3A
:10143000882730916501830F911D9093510180930E
:1014400050018091660190E0982F882730916701C4
:10145000830F911D909353018093520180916801F5
:1014600090E0B0E0A0E0BA2FA92F982F8827309104
:101470006901830F911DA11DB11DDC0199278827EA
:1014800040916A0150E0542F4427052E000C660B52
:10149000770B840F951FA61FB71F30916B01830F29
:1014A000911DA11DB11D8093540190935501A093EE
:1014B0005601B093570181E0203E08F480E080930C
:1014C0005A0278C0813609F422C1C0F4863509F485
:1014D000BEC1803609F419C1853509F017C20E94D2
:1014E0005704C82F0E94570490E0982F88278C0F2C
:1014F000911D90935C0280935B025CC0843709F479
:101500004DC1853709F4E1C1843609F0FFC10E945D
:101510005704C82FD0E0DC2FCC270E945704C80FF7
:10152000D11D0E945704863409F0F8C0CE010E94F4
:1015300092040E945704803209F09CCE84E10E94FC
:1015400021020E943B046C0138E5E32E31E0F32ECA
:10155000C701885591408C179D070CF0DBC00E9495
:101560003B048C159D0531F0C6010E94F7040E94D2
:101570003B046C0100915B0210915C02F701208139
:10158000402F612F80E40E94AF04F7012181402F9A
:10159000612F88E40E94AF040F5F1F4F10935C021D
:1015A00000935B02F2E0EF0EF11CD2CF10925E02CC
:1015B00010925D020E947D04EAC00E9457048032AE
:1015C00009F058CE84E10E94210247E050E067E232
:1015D00071E08FE692E00E94AA0380E1CDC00E94F4
:1015E0005704813879F020F4803841F080E007C05A
:1015F000823851F08339D1F783E501C082E00E943F
:101600006204C5C081E0FBCF82E1F9CF85E090E0C4
:101610000E949204CFCF80915F0290916002892B4B
:1016200049F660915A028AE00E94910261E08AE0E4
:101630000E940203CFB7F89480915902811125C00E
:10164000F1018491F2019491E82FF0E0EE0FFF1F79
:10165000E55BFE4FA591B4918C91982321F461E054
:1016600081E10E94910261E081E10E9402038CB558
:1016700080618CBD8CB580648CBD61E08FE00E9480
:10168000020361E080E10E940203809159028F5FB2
:1016900080935902CFBF80915802882351F08FB7B1
:1016A000F89490915802913021F49DB39DB39DBB65
:1016B0008FBF83E58CBD1DBC60E08FE00E9491026E
:1016C00064E170E080E090E00E945803C0915A020B
:1016D00061E06C278AE00E949102C5010197F1F751
:1016E0006C2F8AE00E94910262E370E080E090E05B
:1016F0000E94580320E040E063E58CEA0E94AF04BA
:101700009092600280925F0255CF0E9457040E941F
:10171000570450CFC6010E94F7045FCF853409F00B
:1017200094C080915201909153018C179D0790F0C5
:1017300000915B0210915C02000F111FC132D105B4
:10174000F0F060E270E0C8010E94C304005E1F4F29
:10175000A097F4CF80915D0290915E0201969093E4
:101760005E0280935D02C1E10E945704803269F4F9
:1017700084E10E9421028C2F0E94210208C0BE0138
:10178000C8010E94C304C0E1EFCF0E942F0461147E
:10179000710409F4FACC0E940000F7CC0E945704AF
:1017A000082F0E945704D82F0E945704C82F0E9468
:1017B0005704803219F00E942F04E9CF10E0102F57
:1017C00000270D0F111D84E10E942102C63429F566
:1017D000D0E0C0E0C017D1070CF0FFCE40915B0213
:1017E00060915C0220E080E20E94AF040E9421022E
:1017F00040915B0260915C0220E088E20E94AF04AD
:101800000E94210280915B0290915C02019690936C
:101810005C0280935B022296DDCFC534B1F4C091A7
:101820005B02D0915C02CC0FDD1F0C0F1D1F0C174B
:101830001D0709F4D2CE2FEF4C2F6D2F80EA0E94A6
:10184000AF040E9421022196F2CF81E195CF84E07E
:1018500090E00E94920420915B0140915A016091B6
:101860005901809158010E94AF04C9CE10925E02C6
:1018700010925D029FB7F89480915902882319F065
:1018800081508093590280915902811105C08CB515
:101890008F7B8CBD109258029FBF60E080E10E9458
:1018A000020360E08FE00E94020360915A0281E02F
:1018B00068278AE00E94910260E08AE00E940203A9
:1018C0001092600210925F0275CE0E94570480321F
:1018D00009F0D0CC84E10E94210220E040E060E0E9
:1018E00080E30E94AF040E94210220E041E060E01A
:1018F00080E30E94AF040E94210220E042E060E009
:1019000080E30E94AF040E94210267CE80915D02B5
:1019100090915E02019690935E0280935D020E9418
:101920005704803209F0AFCC82E126CFEFE6F2E037
:101930001382128288EE93E0A0E0B0E08483958366
:10194000A683B78382E191E0918380838FEF9FEF3D
:10195000958784870895EE0FFF1F0590F491E02D81
:061960000994F894FFCF8A
:10196600FFFFFFFF00E1000000000000088000000C
:1019760000000B02AA033102260277023502530247
:1019860000C180810000004156522049535000009A
:00000001FF
